{"abi":[{"type":"constructor","inputs":[],"stateMutability":"nonpayable"},{"type":"function","name":"approve","inputs":[{"name":"to","type":"address","internalType":"address"},{"name":"tokenId","type":"uint256","internalType":"uint256"}],"outputs":[],"stateMutability":"nonpayable"},{"type":"function","name":"balanceOf","inputs":[{"name":"owner","type":"address","internalType":"address"}],"outputs":[{"name":"","type":"uint256","internalType":"uint256"}],"stateMutability":"view"},{"type":"function","name":"burn","inputs":[{"name":"tokenId","type":"uint256","internalType":"uint256"}],"outputs":[],"stateMutability":"nonpayable"},{"type":"function","name":"getAgent","inputs":[{"name":"agentId","type":"uint256","internalType":"uint256"}],"outputs":[{"name":"","type":"tuple","internalType":"struct AgentRegistry.Agent","components":[{"name":"agentId","type":"uint256","internalType":"uint256"},{"name":"name","type":"string","internalType":"string"},{"name":"description","type":"string","internalType":"string"},{"name":"category","type":"string","internalType":"string"},{"name":"creator","type":"address","internalType":"address"},{"name":"registeredAt","type":"uint256","internalType":"uint256"},{"name":"reviewCount","type":"uint256","internalType":"uint256"},{"name":"totalRating","type":"uint256","internalType":"uint256"},{"name":"reputationScore","type":"uint256","internalType":"uint256"},{"name":"verified","type":"bool","internalType":"bool"}]}],"stateMutability":"view"},{"type":"function","name":"getApproved","inputs":[{"name":"tokenId","type":"uint256","internalType":"uint256"}],"outputs":[{"name":"","type":"address","internalType":"address"}],"stateMutability":"view"},{"type":"function","name":"getReputationScore","inputs":[{"name":"agentId","type":"uint256","internalType":"uint256"}],"outputs":[{"name":"","type":"uint256","internalType":"uint256"}],"stateMutability":"view"},{"type":"function","name":"getReviewCount","inputs":[{"name":"agentId","type":"uint256","internalType":"uint256"}],"outputs":[{"name":"","type":"uint256","internalType":"uint256"}],"stateMutability":"view"},{"type":"function","name":"getReviews","inputs":[{"name":"agentId","type":"uint256","internalType":"uint256"}],"outputs":[{"name":"","type":"tuple[]","internalType":"struct AgentRegistry.Review[]","components":[{"name":"reviewId","type":"uint256","internalType":"uint256"},{"name":"agentId","type":"uint256","internalType":"uint256"},{"name":"reviewer","type":"address","internalType":"address"},{"name":"rating","type":"uint8","internalType":"uint8"},{"name":"reviewText","type":"string","internalType":"string"},{"name":"timestamp","type":"uint256","internalType":"uint256"}]}],"stateMutability":"view"},{"type":"function","name":"getTotalAgents","inputs":[],"outputs":[{"name":"","type":"uint256","internalType":"uint256"}],"stateMutability":"view"},{"type":"function","name":"hasReviewed","inputs":[{"name":"reviewer","type":"address","internalType":"address"},{"name":"agentId","type":"uint256","internalType":"uint256"}],"outputs":[{"name":"","type":"bool","internalType":"bool"}],"stateMutability":"view"},{"type":"function","name":"isApprovedForAll","inputs":[{"name":"owner","type":"address","internalType":"address"},{"name":"operator","type":"address","internalType":"address"}],"outputs":[{"name":"","type":"bool","internalType":"bool"}],"stateMutability":"view"},{"type":"function","name":"name","inputs":[],"outputs":[{"name":"","type":"string","internalType":"string"}],"stateMutability":"view"},{"type":"function","name":"owner","inputs":[],"outputs":[{"name":"","type":"address","internalType":"address"}],"stateMutability":"view"},{"type":"function","name":"ownerOf","inputs":[{"name":"tokenId","type":"uint256","internalType":"uint256"}],"outputs":[{"name":"","type":"address","internalType":"address"}],"stateMutability":"view"},{"type":"function","name":"registerAgent","inputs":[{"name":"name","type":"string","internalType":"string"},{"name":"description","type":"string","internalType":"string"},{"name":"category","type":"string","internalType":"string"},{"name":"metadataURI","type":"string","internalType":"string"}],"outputs":[{"name":"","type":"uint256","internalType":"uint256"}],"stateMutability":"nonpayable"},{"type":"function","name":"renounceOwnership","inputs":[],"outputs":[],"stateMutability":"nonpayable"},{"type":"function","name":"safeTransferFrom","inputs":[{"name":"from","type":"address","internalType":"address"},{"name":"to","type":"address","internalType":"address"},{"name":"tokenId","type":"uint256","internalType":"uint256"}],"outputs":[],"stateMutability":"nonpayable"},{"type":"function","name":"safeTransferFrom","inputs":[{"name":"from","type":"address","internalType":"address"},{"name":"to","type":"address","internalType":"address"},{"name":"tokenId","type":"uint256","internalType":"uint256"},{"name":"data","type":"bytes","internalType":"bytes"}],"outputs":[],"stateMutability":"nonpayable"},{"type":"function","name":"setApprovalForAll","inputs":[{"name":"operator","type":"address","internalType":"address"},{"name":"approved","type":"bool","internalType":"bool"}],"outputs":[],"stateMutability":"nonpayable"},{"type":"function","name":"setReviewerStake","inputs":[{"name":"reviewer","type":"address","internalType":"address"},{"name":"stake","type":"uint256","internalType":"uint256"}],"outputs":[],"stateMutability":"nonpayable"},{"type":"function","name":"submitReview","inputs":[{"name":"agentId","type":"uint256","internalType":"uint256"},{"name":"rating","type":"uint8","internalType":"uint8"},{"name":"reviewText","type":"string","internalType":"string"}],"outputs":[],"stateMutability":"nonpayable"},{"type":"function","name":"supportsInterface","inputs":[{"name":"interfaceId","type":"bytes4","internalType":"bytes4"}],"outputs":[{"name":"","type":"bool","internalType":"bool"}],"stateMutability":"view"},{"type":"function","name":"symbol","inputs":[],"outputs":[{"name":"","type":"string","internalType":"string"}],"stateMutability":"view"},{"type":"function","name":"tokenURI","inputs":[{"name":"tokenId","type":"uint256","internalType":"uint256"}],"outputs":[{"name":"","type":"string","internalType":"string"}],"stateMutability":"view"},{"type":"function","name":"transferFrom","inputs":[{"name":"from","type":"address","internalType":"address"},{"name":"to","type":"address","internalType":"address"},{"name":"tokenId","type":"uint256","internalType":"uint256"}],"outputs":[],"stateMutability":"nonpayable"},{"type":"function","name":"transferOwnership","inputs":[{"name":"newOwner","type":"address","internalType":"address"}],"outputs":[],"stateMutability":"nonpayable"},{"type":"function","name":"updateMetadata","inputs":[{"name":"agentId","type":"uint256","internalType":"uint256"},{"name":"newURI","type":"string","internalType":"string"}],"outputs":[],"stateMutability":"nonpayable"},{"type":"function","name":"verifyAgent","inputs":[{"name":"agentId","type":"uint256","internalType":"uint256"},{"name":"verified","type":"bool","internalType":"bool"}],"outputs":[],"stateMutability":"nonpayable"},{"type":"event","name":"AgentRegistered","inputs":[{"name":"agentId","type":"uint256","indexed":true,"internalType":"uint256"},{"name":"name","type":"string","indexed":false,"internalType":"string"},{"name":"creator","type":"address","indexed":true,"internalType":"address"},{"name":"timestamp","type":"uint256","indexed":false,"internalType":"uint256"}],"anonymous":false},{"type":"event","name":"AgentVerified","inputs":[{"name":"agentId","type":"uint256","indexed":true,"internalType":"uint256"},{"name":"verified","type":"bool","indexed":false,"internalType":"bool"},{"name":"timestamp","type":"uint256","indexed":false,"internalType":"uint256"}],"anonymous":false},{"type":"event","name":"Approval","inputs":[{"name":"owner","type":"address","indexed":true,"internalType":"address"},{"name":"approved","type":"address","indexed":true,"internalType":"address"},{"name":"tokenId","type":"uint256","indexed":true,"internalType":"uint256"}],"anonymous":false},{"type":"event","name":"ApprovalForAll","inputs":[{"name":"owner","type":"address","indexed":true,"internalType":"address"},{"name":"operator","type":"address","indexed":true,"internalType":"address"},{"name":"approved","type":"bool","indexed":false,"internalType":"bool"}],"anonymous":false},{"type":"event","name":"BatchMetadataUpdate","inputs":[{"name":"_fromTokenId","type":"uint256","indexed":false,"internalType":"uint256"},{"name":"_toTokenId","type":"uint256","indexed":false,"internalType":"uint256"}],"anonymous":false},{"type":"event","name":"MetadataUpdate","inputs":[{"name":"_tokenId","type":"uint256","indexed":false,"internalType":"uint256"}],"anonymous":false},{"type":"event","name":"MetadataUpdated","inputs":[{"name":"agentId","type":"uint256","indexed":true,"internalType":"uint256"},{"name":"newURI","type":"string","indexed":false,"internalType":"string"},{"name":"timestamp","type":"uint256","indexed":false,"internalType":"uint256"}],"anonymous":false},{"type":"event","name":"OwnershipTransferred","inputs":[{"name":"previousOwner","type":"address","indexed":true,"internalType":"address"},{"name":"newOwner","type":"address","indexed":true,"internalType":"address"}],"anonymous":false},{"type":"event","name":"ReputationUpdated","inputs":[{"name":"agentId","type":"uint256","indexed":true,"internalType":"uint256"},{"name":"newScore","type":"uint256","indexed":false,"internalType":"uint256"},{"name":"timestamp","type":"uint256","indexed":false,"internalType":"uint256"}],"anonymous":false},{"type":"event","name":"ReviewSubmitted","inputs":[{"name":"reviewId","type":"uint256","indexed":true,"internalType":"uint256"},{"name":"agentId","type":"uint256","indexed":true,"internalType":"uint256"},{"name":"reviewer","type":"address","indexed":true,"internalType":"address"},{"name":"rating","type":"uint8","indexed":false,"internalType":"uint8"},{"name":"timestamp","type":"uint256","indexed":false,"internalType":"uint256"}],"anonymous":false},{"type":"event","name":"Transfer","inputs":[{"name":"from","type":"address","indexed":true,"internalType":"address"},{"name":"to","type":"address","indexed":true,"internalType":"address"},{"name":"tokenId","type":"uint256","indexed":true,"internalType":"uint256"}],"anonymous":false},{"type":"error","name":"ERC721IncorrectOwner","inputs":[{"name":"sender","type":"address","internalType":"address"},{"name":"tokenId","type":"uint256","internalType":"uint256"},{"name":"owner","type":"address","internalType":"address"}]},{"type":"error","name":"ERC721InsufficientApproval","inputs":[{"name":"operator","type":"address","internalType":"address"},{"name":"tokenId","type":"uint256","internalType":"uint256"}]},{"type":"error","name":"ERC721InvalidApprover","inputs":[{"name":"approver","type":"address","internalType":"address"}]},{"type":"error","name":"ERC721InvalidOperator","inputs":[{"name":"operator","type":"address","internalType":"address"}]},{"type":"error","name":"ERC721InvalidOwner","inputs":[{"name":"owner","type":"address","internalType":"address"}]},{"type":"error","name":"ERC721InvalidReceiver","inputs":[{"name":"receiver","type":"address","internalType":"address"}]},{"type":"error","name":"ERC721InvalidSender","inputs":[{"name":"sender","type":"address","internalType":"address"}]},{"type":"error","name":"ERC721NonexistentToken","inputs":[{"name":"tokenId","type":"uint256","internalType":"uint256"}]},{"type":"error","name":"OwnableInvalidOwner","inputs":[{"name":"owner","type":"address","internalType":"address"}]},{"type":"error","name":"OwnableUnauthorizedAccount","inputs":[{"name":"account","type":"address","internalType":"address"}]},{"type":"error","name":"ReentrancyGuardReentrantCall","inputs":[]}],"bytecode":{"object":"0x608060405234801561000f575f5ffd5b50336040518060400160405280600d81526020017f4167656e745265676973747279000000000000000000000000000000000000008152506040518060400160405280600581526020017f4147454e54000000000000000000000000000000000000000000000000000000815250815f908161008b9190610492565b50806001908161009b9190610492565b5050505f73ffffffffffffffffffffffffffffffffffffffff168173ffffffffffffffffffffffffffffffffffffffff160361010e575f6040517f1e4fbdf700000000000000000000000000000000000000000000000000000000815260040161010591906105a0565b60405180910390fd5b61011d8161014f60201b60201c565b50600161013c61013161021260201b60201c565b61023b60201b60201c565b5f018190555060016008819055506105b9565b5f60075f9054906101000a900473ffffffffffffffffffffffffffffffffffffffff1690508160075f6101000a81548173ffffffffffffffffffffffffffffffffffffffff021916908373ffffffffffffffffffffffffffffffffffffffff1602179055508173ffffffffffffffffffffffffffffffffffffffff168173ffffffffffffffffffffffffffffffffffffffff167f8be0079c531659141344cd1fd0a4f28419497f9722a3daafe3b4186f6b6457e060405160405180910390a35050565b5f7f9b779b17422d0df92223018b32b4d1fa46e071723d6817e2486d003becc55f005f1b905090565b5f819050919050565b5f81519050919050565b7f4e487b71000000000000000000000000000000000000000000000000000000005f52604160045260245ffd5b7f4e487b71000000000000000000000000000000000000000000000000000000005f52602260045260245ffd5b5f60028204905060018216806102bf57607f821691505b6020821081036102d2576102d161027b565b5b50919050565b5f819050815f5260205f209050919050565b5f6020601f8301049050919050565b5f82821b905092915050565b5f600883026103347fffffffffffffffffffffffffffffffffffffffffffffffffffffffffffffffff826102f9565b61033e86836102f9565b95508019841693508086168417925050509392505050565b5f819050919050565b5f819050919050565b5f61038261037d61037884610356565b61035f565b610356565b9050919050565b5f819050919050565b61039b83610368565b6103af6103a782610389565b848454610305565b825550505050565b5f5f905090565b6103c66103b7565b6103d1818484610392565b505050565b5f5b828110156103f7576103ec5f8284016103be565b6001810190506103d8565b505050565b601f82111561044a578282111561044957610416816102d8565b61041f836102ea565b610428856102ea565b6020861015610435575f90505b808301610444828403826103d6565b505050505b5b505050565b5f82821c905092915050565b5f61046a5f198460080261044f565b1980831691505092915050565b5f610482838361045b565b9150826002028217905092915050565b61049b82610244565b67ffffffffffffffff8111156104b4576104b361024e565b5b6104be82546102a8565b6104c98282856103fc565b5f60209050601f8311600181146104fa575f84156104e8578287015190505b6104f28582610477565b865550610559565b601f198416610508866102d8565b5f5b8281101561052f5784890151825560018201915060208501945060208101905061050a565b8683101561054c5784890151610548601f89168261045b565b8355505b6001600288020188555050505b505050505050565b5f73ffffffffffffffffffffffffffffffffffffffff82169050919050565b5f61058a82610561565b9050919050565b61059a81610580565b82525050565b5f6020820190506105b35f830184610591565b92915050565b61419b806105c65f395ff3fe608060405234801561000f575f5ffd5b50600436106101c2575f3560e01c806370a08231116100f7578063a22cb46511610095578063c87b56dd1161006f578063c87b56dd14610524578063e985e9c514610554578063f1af6ed614610584578063f2fde38b146105a0576101c2565b8063a22cb465146104bc578063b88d4fde146104d8578063bd5bcb0a146104f4576101c2565b806375694ff3116100d157806375694ff3146104205780638da5cb5b1461045057806395d89b411461046e5780639d4a22551461048c576101c2565b806370a08231146103ca578063715018a6146103fa57806374a5b69314610404576101c2565b8063309578ff1161016457806342966c681161013e57806342966c681461033257806353c8388e1461034e5780635d75135a1461036a5780636352211e1461039a576101c2565b8063309578ff146102c85780633731a16f146102f857806342842e0e14610316576101c2565b8063095ea7b3116101a0578063095ea7b31461024457806320c7c5841461026057806323b872dd1461027c5780632de5aaf714610298576101c2565b806301ffc9a7146101c657806306fdde03146101f6578063081812fc14610214575b5f5ffd5b6101e060048036038101906101db9190612ec6565b6105bc565b6040516101ed9190612f0b565b60405180910390f35b6101fe6105cd565b60405161020b9190612f94565b60405180910390f35b61022e60048036038101906102299190612fe7565b61065c565b60405161023b9190613051565b60405180910390f35b61025e60048036038101906102599190613094565b610677565b005b61027a600480360381019061027591906130fc565b61068d565b005b6102966004803603810190610291919061313a565b61077d565b005b6102b260048036038101906102ad9190612fe7565b61087c565b6040516102bf91906132e4565b60405180910390f35b6102e260048036038101906102dd9190613094565b610b6e565b6040516102ef9190612f0b565b60405180910390f35b610300610bd0565b60405161030d9190613313565b60405180910390f35b610330600480360381019061032b919061313a565b610bd9565b005b61034c60048036038101906103479190612fe7565b610bf8565b005b61036860048036038101906103639190613458565b610c7f565b005b610384600480360381019061037f9190612fe7565b610db3565b6040516103919190613313565b60405180910390f35b6103b460048036038101906103af9190612fe7565b610e46565b6040516103c19190613051565b60405180910390f35b6103e460048036038101906103df91906134b2565b610e57565b6040516103f19190613313565b60405180910390f35b610402610f0d565b005b61041e60048036038101906104199190613513565b610f20565b005b61043a6004803603810190610435919061357f565b6112e1565b6040516104479190613313565b60405180910390f35b6104586114c7565b6040516104659190613051565b60405180910390f35b6104766114ef565b6040516104839190612f94565b60405180910390f35b6104a660048036038101906104a19190612fe7565b61157f565b6040516104b391906137a3565b60405180910390f35b6104d660048036038101906104d191906137c3565b611781565b005b6104f260048036038101906104ed919061389f565b611797565b005b61050e60048036038101906105099190612fe7565b6117bc565b60405161051b9190613313565b60405180910390f35b61053e60048036038101906105399190612fe7565b61184f565b60405161054b9190612f94565b60405180910390f35b61056e6004803603810190610569919061391f565b611861565b60405161057b9190612f0b565b60405180910390f35b61059e60048036038101906105999190613094565b6118ef565b005b6105ba60048036038101906105b591906134b2565b61193d565b005b5f6105c6826119c1565b9050919050565b60605f80546105db9061398a565b80601f01602080910402602001604051908101604052809291908181526020018280546106079061398a565b80156106525780601f1061062957610100808354040283529160200191610652565b820191905f5260205f20905b81548152906001019060200180831161063557829003601f168201915b5050505050905090565b5f61066682611a21565b5061067082611aa7565b9050919050565b6106898282610684611ae0565b611ae7565b5050565b610695611af9565b5f73ffffffffffffffffffffffffffffffffffffffff166106b583610e46565b73ffffffffffffffffffffffffffffffffffffffff160361070b576040517f08c379a000000000000000000000000000000000000000000000000000000000815260040161070290613a04565b60405180910390fd5b8060095f8481526020019081526020015f206009015f6101000a81548160ff02191690831515021790555061073f82611b80565b817fb81351d2e171ad4eacc47b8b9291bdd0efbd894807053527ef7a8005edaa03b58242604051610771929190613a22565b60405180910390a25050565b5f73ffffffffffffffffffffffffffffffffffffffff168273ffffffffffffffffffffffffffffffffffffffff16036107ed575f6040517f64a0ae920000000000000000000000000000000000000000000000000000000081526004016107e49190613051565b60405180910390fd5b5f61080083836107fb611ae0565b611c56565b90508373ffffffffffffffffffffffffffffffffffffffff168173ffffffffffffffffffffffffffffffffffffffff1614610876578382826040517f64283d7b00000000000000000000000000000000000000000000000000000000815260040161086d93929190613a49565b60405180910390fd5b50505050565b610884612dfc565b5f73ffffffffffffffffffffffffffffffffffffffff166108a483610e46565b73ffffffffffffffffffffffffffffffffffffffff16036108fa576040517f08c379a00000000000000000000000000000000000000000000000000000000081526004016108f190613a04565b60405180910390fd5b60095f8381526020019081526020015f20604051806101400160405290815f82015481526020016001820180546109309061398a565b80601f016020809104026020016040519081016040528092919081815260200182805461095c9061398a565b80156109a75780601f1061097e576101008083540402835291602001916109a7565b820191905f5260205f20905b81548152906001019060200180831161098a57829003601f168201915b505050505081526020016002820180546109c09061398a565b80601f01602080910402602001604051908101604052809291908181526020018280546109ec9061398a565b8015610a375780601f10610a0e57610100808354040283529160200191610a37565b820191905f5260205f20905b815481529060010190602001808311610a1a57829003601f168201915b50505050508152602001600382018054610a509061398a565b80601f0160208091040260200160405190810160405280929190818152602001828054610a7c9061398a565b8015610ac75780601f10610a9e57610100808354040283529160200191610ac7565b820191905f5260205f20905b815481529060010190602001808311610aaa57829003601f168201915b50505050508152602001600482015f9054906101000a900473ffffffffffffffffffffffffffffffffffffffff1673ffffffffffffffffffffffffffffffffffffffff1673ffffffffffffffffffffffffffffffffffffffff16815260200160058201548152602001600682015481526020016007820154815260200160088201548152602001600982015f9054906101000a900460ff1615151515815250509050919050565b5f600b5f8473ffffffffffffffffffffffffffffffffffffffff1673ffffffffffffffffffffffffffffffffffffffff1681526020019081526020015f205f8381526020019081526020015f205f9054906101000a900460ff16905092915050565b5f600854905090565b610bf383838360405180602001604052805f815250611797565b505050565b5f610c0282610e46565b90508073ffffffffffffffffffffffffffffffffffffffff163373ffffffffffffffffffffffffffffffffffffffff1614610c72576040517f08c379a0000000000000000000000000000000000000000000000000000000008152600401610c6990613ac8565b60405180910390fd5b610c7b82611e61565b5050565b5f73ffffffffffffffffffffffffffffffffffffffff16610c9f83610e46565b73ffffffffffffffffffffffffffffffffffffffff1603610cf5576040517f08c379a0000000000000000000000000000000000000000000000000000000008152600401610cec90613a04565b60405180910390fd5b3373ffffffffffffffffffffffffffffffffffffffff16610d1583610e46565b73ffffffffffffffffffffffffffffffffffffffff1614610d6b576040517f08c379a0000000000000000000000000000000000000000000000000000000008152600401610d6290613ac8565b60405180910390fd5b610d758282611ee3565b817faef83f88d7b64742932e336e35ec4ebdbf35e2824c4cc154007911e95b72367e8242604051610da7929190613ae6565b60405180910390a25050565b5f5f73ffffffffffffffffffffffffffffffffffffffff16610dd483610e46565b73ffffffffffffffffffffffffffffffffffffffff1603610e2a576040517f08c379a0000000000000000000000000000000000000000000000000000000008152600401610e2190613a04565b60405180910390fd5b60095f8381526020019081526020015f20600601549050919050565b5f610e5082611a21565b9050919050565b5f5f73ffffffffffffffffffffffffffffffffffffffff168273ffffffffffffffffffffffffffffffffffffffff1603610ec8575f6040517f89c62b64000000000000000000000000000000000000000000000000000000008152600401610ebf9190613051565b60405180910390fd5b60035f8373ffffffffffffffffffffffffffffffffffffffff1673ffffffffffffffffffffffffffffffffffffffff1681526020019081526020015f20549050919050565b610f15611af9565b610f1e5f611f3d565b565b610f28612000565b5f73ffffffffffffffffffffffffffffffffffffffff16610f4884610e46565b73ffffffffffffffffffffffffffffffffffffffff1603610f9e576040517f08c379a0000000000000000000000000000000000000000000000000000000008152600401610f9590613a04565b60405180910390fd5b60018260ff1610158015610fb6575060058260ff1611155b610ff5576040517f08c379a0000000000000000000000000000000000000000000000000000000008152600401610fec90613b5e565b60405180910390fd5b600b5f3373ffffffffffffffffffffffffffffffffffffffff1673ffffffffffffffffffffffffffffffffffffffff1681526020019081526020015f205f8481526020019081526020015f205f9054906101000a900460ff161561108e576040517f08c379a000000000000000000000000000000000000000000000000000000000815260040161108590613bc6565b60405180910390fd5b5f600a5f8581526020019081526020015f20805490509050600a5f8581526020019081526020015f206040518060c001604052808381526020018681526020013373ffffffffffffffffffffffffffffffffffffffff1681526020018560ff16815260200184815260200142815250908060018154018082558091505060019003905f5260205f2090600502015f909190919091505f820151815f0155602082015181600101556040820151816002015f6101000a81548173ffffffffffffffffffffffffffffffffffffffff021916908373ffffffffffffffffffffffffffffffffffffffff16021790555060608201518160020160146101000a81548160ff021916908360ff16021790555060808201518160030190816111b19190613d95565b5060a0820151816004015550506001600b5f3373ffffffffffffffffffffffffffffffffffffffff1673ffffffffffffffffffffffffffffffffffffffff1681526020019081526020015f205f8681526020019081526020015f205f6101000a81548160ff02191690831515021790555060095f8581526020019081526020015f206006015f81548092919061124690613e91565b91905055508260ff1660095f8681526020019081526020015f206007015f8282546112719190613ed8565b9250508190555061128184611b80565b3373ffffffffffffffffffffffffffffffffffffffff1684827fdf51072dedeb7ec2158e7a37f2d3f8148bd62fa3a1be6113e4756c61078b36eb86426040516112cb929190613f1a565b60405180910390a4506112dc612022565b505050565b5f6112ea612000565b5f60085f8154809291906112fd90613e91565b9190505590506040518061014001604052808281526020018781526020018681526020018581526020013373ffffffffffffffffffffffffffffffffffffffff1681526020014281526020015f81526020015f81526020015f81526020015f151581525060095f8381526020019081526020015f205f820151815f0155602082015181600101908161138f9190613d95565b5060408201518160020190816113a59190613d95565b5060608201518160030190816113bb9190613d95565b506080820151816004015f6101000a81548173ffffffffffffffffffffffffffffffffffffffff021916908373ffffffffffffffffffffffffffffffffffffffff16021790555060a0820151816005015560c0820151816006015560e082015181600701556101008201518160080155610120820151816009015f6101000a81548160ff021916908315150217905550905050611458338261203c565b6114628184611ee3565b3373ffffffffffffffffffffffffffffffffffffffff16817fb71aae75f83d64a3d5e29ebd26bfad7720610b9e94f288a0c62994ecb5ca7f9d88426040516114ab929190613ae6565b60405180910390a3809150506114bf612022565b949350505050565b5f60075f9054906101000a900473ffffffffffffffffffffffffffffffffffffffff16905090565b6060600180546114fe9061398a565b80601f016020809104026020016040519081016040528092919081815260200182805461152a9061398a565b80156115755780601f1061154c57610100808354040283529160200191611575565b820191905f5260205f20905b81548152906001019060200180831161155857829003601f168201915b5050505050905090565b60605f73ffffffffffffffffffffffffffffffffffffffff166115a183610e46565b73ffffffffffffffffffffffffffffffffffffffff16036115f7576040517f08c379a00000000000000000000000000000000000000000000000000000000081526004016115ee90613a04565b60405180910390fd5b600a5f8381526020019081526020015f20805480602002602001604051908101604052809291908181526020015f905b82821015611776578382905f5260205f2090600502016040518060c00160405290815f820154815260200160018201548152602001600282015f9054906101000a900473ffffffffffffffffffffffffffffffffffffffff1673ffffffffffffffffffffffffffffffffffffffff1673ffffffffffffffffffffffffffffffffffffffff1681526020016002820160149054906101000a900460ff1660ff1660ff1681526020016003820180546116dd9061398a565b80601f01602080910402602001604051908101604052809291908181526020018280546117099061398a565b80156117545780601f1061172b57610100808354040283529160200191611754565b820191905f5260205f20905b81548152906001019060200180831161173757829003601f168201915b5050505050815260200160048201548152505081526020019060010190611627565b505050509050919050565b61179361178c611ae0565b8383612059565b5050565b6117a284848461077d565b6117b66117ad611ae0565b85858585612232565b50505050565b5f5f73ffffffffffffffffffffffffffffffffffffffff166117dd83610e46565b73ffffffffffffffffffffffffffffffffffffffff1603611833576040517f08c379a000000000000000000000000000000000000000000000000000000000815260040161182a90613a04565b60405180910390fd5b60095f8381526020019081526020015f20600801549050919050565b606061185a826123de565b9050919050565b5f60055f8473ffffffffffffffffffffffffffffffffffffffff1673ffffffffffffffffffffffffffffffffffffffff1681526020019081526020015f205f8373ffffffffffffffffffffffffffffffffffffffff1673ffffffffffffffffffffffffffffffffffffffff1681526020019081526020015f205f9054906101000a900460ff16905092915050565b6118f7611af9565b80600c5f8473ffffffffffffffffffffffffffffffffffffffff1673ffffffffffffffffffffffffffffffffffffffff1681526020019081526020015f20819055505050565b611945611af9565b5f73ffffffffffffffffffffffffffffffffffffffff168173ffffffffffffffffffffffffffffffffffffffff16036119b5575f6040517f1e4fbdf70000000000000000000000000000000000000000000000000000000081526004016119ac9190613051565b60405180910390fd5b6119be81611f3d565b50565b5f634906490660e01b7bffffffffffffffffffffffffffffffffffffffffffffffffffffffff1916827bffffffffffffffffffffffffffffffffffffffffffffffffffffffff19161480611a1a5750611a198261245a565b5b9050919050565b5f5f611a2c8361253b565b90505f73ffffffffffffffffffffffffffffffffffffffff168173ffffffffffffffffffffffffffffffffffffffff1603611a9e57826040517f7e273289000000000000000000000000000000000000000000000000000000008152600401611a959190613313565b60405180910390fd5b80915050919050565b5f60045f8381526020019081526020015f205f9054906101000a900473ffffffffffffffffffffffffffffffffffffffff169050919050565b5f33905090565b611af48383836001612574565b505050565b611b01611ae0565b73ffffffffffffffffffffffffffffffffffffffff16611b1f6114c7565b73ffffffffffffffffffffffffffffffffffffffff1614611b7e57611b42611ae0565b6040517f118cdaa7000000000000000000000000000000000000000000000000000000008152600401611b759190613051565b60405180910390fd5b565b5f60095f8381526020019081526020015f2090505f5f826006015411611ba6575f611bc7565b816006015460648360070154611bbc9190613f41565b611bc69190613faf565b5b90505f600582611bd79190613faf565b90505f836009015f9054906101000a900460ff16611bf5575f611bf8565b60325b60ff1690508082611c099190613ed8565b8460080181905550847fd9f66501c000653403d74ddfa62a75c8dd44cc05d910ee81bf1d852262dd5fa1856008015442604051611c47929190613fdf565b60405180910390a25050505050565b5f5f611c618461253b565b90505f73ffffffffffffffffffffffffffffffffffffffff168373ffffffffffffffffffffffffffffffffffffffff1614611ca257611ca1818486612733565b5b5f73ffffffffffffffffffffffffffffffffffffffff168173ffffffffffffffffffffffffffffffffffffffff1614611d2d57611ce15f855f5f612574565b600160035f8373ffffffffffffffffffffffffffffffffffffffff1673ffffffffffffffffffffffffffffffffffffffff1681526020019081526020015f205f82825403925050819055505b5f73ffffffffffffffffffffffffffffffffffffffff168573ffffffffffffffffffffffffffffffffffffffff1614611dac57600160035f8773ffffffffffffffffffffffffffffffffffffffff1673ffffffffffffffffffffffffffffffffffffffff1681526020019081526020015f205f82825401925050819055505b8460025f8681526020019081526020015f205f6101000a81548173ffffffffffffffffffffffffffffffffffffffff021916908373ffffffffffffffffffffffffffffffffffffffff160217905550838573ffffffffffffffffffffffffffffffffffffffff168273ffffffffffffffffffffffffffffffffffffffff167fddf252ad1be2c89b69c2b068fc378daa952ba7f163c4a11628f55a4df523b3ef60405160405180910390a4809150509392505050565b5f611e6d5f835f611c56565b90505f73ffffffffffffffffffffffffffffffffffffffff168173ffffffffffffffffffffffffffffffffffffffff1603611edf57816040517f7e273289000000000000000000000000000000000000000000000000000000008152600401611ed69190613313565b60405180910390fd5b5050565b8060065f8481526020019081526020015f209081611f019190613d95565b507ff8e1a15aba9398e019f0b49df1a4fde98ee17ae345cb5f6b5e2c27f5033e8ce782604051611f319190613313565b60405180910390a15050565b5f60075f9054906101000a900473ffffffffffffffffffffffffffffffffffffffff1690508160075f6101000a81548173ffffffffffffffffffffffffffffffffffffffff021916908373ffffffffffffffffffffffffffffffffffffffff1602179055508173ffffffffffffffffffffffffffffffffffffffff168173ffffffffffffffffffffffffffffffffffffffff167f8be0079c531659141344cd1fd0a4f28419497f9722a3daafe3b4186f6b6457e060405160405180910390a35050565b6120086127f6565b600261201a612015612837565b612860565b5f0181905550565b600161203461202f612837565b612860565b5f0181905550565b612055828260405180602001604052805f815250612869565b5050565b5f73ffffffffffffffffffffffffffffffffffffffff168373ffffffffffffffffffffffffffffffffffffffff16036120c9575f6040517fa9fbf51f0000000000000000000000000000000000000000000000000000000081526004016120c09190613051565b60405180910390fd5b5f73ffffffffffffffffffffffffffffffffffffffff168273ffffffffffffffffffffffffffffffffffffffff160361213957816040517f5b08ba180000000000000000000000000000000000000000000000000000000081526004016121309190613051565b60405180910390fd5b8060055f8573ffffffffffffffffffffffffffffffffffffffff1673ffffffffffffffffffffffffffffffffffffffff1681526020019081526020015f205f8473ffffffffffffffffffffffffffffffffffffffff1673ffffffffffffffffffffffffffffffffffffffff1681526020019081526020015f205f6101000a81548160ff0219169083151502179055508173ffffffffffffffffffffffffffffffffffffffff168373ffffffffffffffffffffffffffffffffffffffff167f17307eab39ab6107e8899845ad3d59bd9653f200f220920489ca2b5937696c31836040516122259190612f0b565b60405180910390a3505050565b5f8373ffffffffffffffffffffffffffffffffffffffff163b11156123d7578273ffffffffffffffffffffffffffffffffffffffff1663150b7a02868685856040518563ffffffff1660e01b81526004016122909493929190614058565b6020604051808303815f875af19250505080156122cb57506040513d601f19601f820116820180604052508101906122c891906140b6565b60015b61234c573d805f81146122f9576040519150601f19603f3d011682016040523d82523d5f602084013e6122fe565b606091505b505f81510361234457836040517f64a0ae9200000000000000000000000000000000000000000000000000000000815260040161233b9190613051565b60405180910390fd5b805160208201fd5b63150b7a0260e01b7bffffffffffffffffffffffffffffffffffffffffffffffffffffffff1916817bffffffffffffffffffffffffffffffffffffffffffffffffffffffff1916146123d557836040517f64a0ae920000000000000000000000000000000000000000000000000000000081526004016123cc9190613051565b60405180910390fd5b505b5050505050565b60606123e982611a21565b505f6123f361288c565b90505f6123ff846128a2565b90505f825103612413578092505050612455565b5f8151111561244757818160405160200161242f92919061411b565b60405160208183030381529060405292505050612455565b61245084612943565b925050505b919050565b5f7f80ac58cd000000000000000000000000000000000000000000000000000000007bffffffffffffffffffffffffffffffffffffffffffffffffffffffff1916827bffffffffffffffffffffffffffffffffffffffffffffffffffffffff1916148061252457507f5b5e139f000000000000000000000000000000000000000000000000000000007bffffffffffffffffffffffffffffffffffffffffffffffffffffffff1916827bffffffffffffffffffffffffffffffffffffffffffffffffffffffff1916145b806125345750612533826129a9565b5b9050919050565b5f60025f8381526020019081526020015f205f9054906101000a900473ffffffffffffffffffffffffffffffffffffffff169050919050565b80806125ac57505f73ffffffffffffffffffffffffffffffffffffffff168273ffffffffffffffffffffffffffffffffffffffff1614155b156126de575f6125bb84611a21565b90505f73ffffffffffffffffffffffffffffffffffffffff168373ffffffffffffffffffffffffffffffffffffffff161415801561262557508273ffffffffffffffffffffffffffffffffffffffff168173ffffffffffffffffffffffffffffffffffffffff1614155b801561263857506126368184611861565b155b1561267a57826040517fa9fbf51f0000000000000000000000000000000000000000000000000000000081526004016126719190613051565b60405180910390fd5b81156126dc57838573ffffffffffffffffffffffffffffffffffffffff168273ffffffffffffffffffffffffffffffffffffffff167f8c5be1e5ebec7d5bd14f71427d1e84f3dd0314c0f7b2291e5b200ac8c7c3b92560405160405180910390a45b505b8360045f8581526020019081526020015f205f6101000a81548173ffffffffffffffffffffffffffffffffffffffff021916908373ffffffffffffffffffffffffffffffffffffffff16021790555050505050565b61273e838383612a12565b6127f1575f73ffffffffffffffffffffffffffffffffffffffff168373ffffffffffffffffffffffffffffffffffffffff16036127b257806040517f7e2732890000000000000000000000000000000000000000000000000000000081526004016127a99190613313565b60405180910390fd5b81816040517f177e802f0000000000000000000000000000000000000000000000000000000081526004016127e892919061413e565b60405180910390fd5b505050565b6127fe612ad2565b15612835576040517f3ee5aeb500000000000000000000000000000000000000000000000000000000815260040160405180910390fd5b565b5f7f9b779b17422d0df92223018b32b4d1fa46e071723d6817e2486d003becc55f005f1b905090565b5f819050919050565b6128738383612aee565b61288761287e611ae0565b5f858585612232565b505050565b606060405180602001604052805f815250905090565b606060065f8381526020019081526020015f2080546128c09061398a565b80601f01602080910402602001604051908101604052809291908181526020018280546128ec9061398a565b80156129375780601f1061290e57610100808354040283529160200191612937565b820191905f5260205f20905b81548152906001019060200180831161291a57829003601f168201915b50505050509050919050565b606061294e82611a21565b505f61295861288c565b90505f8151116129765760405180602001604052805f8152506129a1565b8061298084612be1565b60405160200161299192919061411b565b6040516020818303038152906040525b915050919050565b5f7f01ffc9a7000000000000000000000000000000000000000000000000000000007bffffffffffffffffffffffffffffffffffffffffffffffffffffffff1916827bffffffffffffffffffffffffffffffffffffffffffffffffffffffff1916149050919050565b5f5f73ffffffffffffffffffffffffffffffffffffffff168373ffffffffffffffffffffffffffffffffffffffff1614158015612ac957508273ffffffffffffffffffffffffffffffffffffffff168473ffffffffffffffffffffffffffffffffffffffff161480612a8a5750612a898484611861565b5b80612ac857508273ffffffffffffffffffffffffffffffffffffffff16612ab083611aa7565b73ffffffffffffffffffffffffffffffffffffffff16145b5b90509392505050565b5f6002612ae5612ae0612837565b612860565b5f015414905090565b5f73ffffffffffffffffffffffffffffffffffffffff168273ffffffffffffffffffffffffffffffffffffffff1603612b5e575f6040517f64a0ae92000000000000000000000000000000000000000000000000000000008152600401612b559190613051565b60405180910390fd5b5f612b6a83835f611c56565b90505f73ffffffffffffffffffffffffffffffffffffffff168173ffffffffffffffffffffffffffffffffffffffff1614612bdc575f6040517f73c6ac6e000000000000000000000000000000000000000000000000000000008152600401612bd39190613051565b60405180910390fd5b505050565b60605f6001612bef84612cab565b0190505f8167ffffffffffffffff811115612c0d57612c0c613334565b5b6040519080825280601f01601f191660200182016040528015612c3f5781602001600182028036833780820191505090505b5090505f82602083010190505b600115612ca0578080600190039150507f3031323334353637383961626364656600000000000000000000000000000000600a86061a8153600a8581612c9557612c94613f82565b5b0494505f8503612c4c575b819350505050919050565b5f5f5f90507a184f03e93ff9f4daa797ed6e38ed64bf6a1f0100000000000000008310612d07577a184f03e93ff9f4daa797ed6e38ed64bf6a1f0100000000000000008381612cfd57612cfc613f82565b5b0492506040810190505b6d04ee2d6d415b85acef81000000008310612d44576d04ee2d6d415b85acef81000000008381612d3a57612d39613f82565b5b0492506020810190505b662386f26fc100008310612d7357662386f26fc100008381612d6957612d68613f82565b5b0492506010810190505b6305f5e1008310612d9c576305f5e1008381612d9257612d91613f82565b5b0492506008810190505b6127108310612dc1576127108381612db757612db6613f82565b5b0492506004810190505b60648310612de45760648381612dda57612dd9613f82565b5b0492506002810190505b600a8310612df3576001810190505b80915050919050565b6040518061014001604052805f81526020016060815260200160608152602001606081526020015f73ffffffffffffffffffffffffffffffffffffffff1681526020015f81526020015f81526020015f81526020015f81526020015f151581525090565b5f604051905090565b5f5ffd5b5f5ffd5b5f7fffffffff0000000000000000000000000000000000000000000000000000000082169050919050565b612ea581612e71565b8114612eaf575f5ffd5b50565b5f81359050612ec081612e9c565b92915050565b5f60208284031215612edb57612eda612e69565b5b5f612ee884828501612eb2565b91505092915050565b5f8115159050919050565b612f0581612ef1565b82525050565b5f602082019050612f1e5f830184612efc565b92915050565b5f81519050919050565b5f82825260208201905092915050565b8281835e5f83830152505050565b5f601f19601f8301169050919050565b5f612f6682612f24565b612f708185612f2e565b9350612f80818560208601612f3e565b612f8981612f4c565b840191505092915050565b5f6020820190508181035f830152612fac8184612f5c565b905092915050565b5f819050919050565b612fc681612fb4565b8114612fd0575f5ffd5b50565b5f81359050612fe181612fbd565b92915050565b5f60208284031215612ffc57612ffb612e69565b5b5f61300984828501612fd3565b91505092915050565b5f73ffffffffffffffffffffffffffffffffffffffff82169050919050565b5f61303b82613012565b9050919050565b61304b81613031565b82525050565b5f6020820190506130645f830184613042565b92915050565b61307381613031565b811461307d575f5ffd5b50565b5f8135905061308e8161306a565b92915050565b5f5f604083850312156130aa576130a9612e69565b5b5f6130b785828601613080565b92505060206130c885828601612fd3565b9150509250929050565b6130db81612ef1565b81146130e5575f5ffd5b50565b5f813590506130f6816130d2565b92915050565b5f5f6040838503121561311257613111612e69565b5b5f61311f85828601612fd3565b9250506020613130858286016130e8565b9150509250929050565b5f5f5f6060848603121561315157613150612e69565b5b5f61315e86828701613080565b935050602061316f86828701613080565b925050604061318086828701612fd3565b9150509250925092565b61319381612fb4565b82525050565b5f82825260208201905092915050565b5f6131b382612f24565b6131bd8185613199565b93506131cd818560208601612f3e565b6131d681612f4c565b840191505092915050565b6131ea81613031565b82525050565b6131f981612ef1565b82525050565b5f61014083015f8301516132155f86018261318a565b506020830151848203602086015261322d82826131a9565b9150506040830151848203604086015261324782826131a9565b9150506060830151848203606086015261326182826131a9565b915050608083015161327660808601826131e1565b5060a083015161328960a086018261318a565b5060c083015161329c60c086018261318a565b5060e08301516132af60e086018261318a565b506101008301516132c461010086018261318a565b506101208301516132d96101208601826131f0565b508091505092915050565b5f6020820190508181035f8301526132fc81846131ff565b905092915050565b61330d81612fb4565b82525050565b5f6020820190506133265f830184613304565b92915050565b5f5ffd5b5f5ffd5b7f4e487b71000000000000000000000000000000000000000000000000000000005f52604160045260245ffd5b61336a82612f4c565b810181811067ffffffffffffffff8211171561338957613388613334565b5b80604052505050565b5f61339b612e60565b90506133a78282613361565b919050565b5f67ffffffffffffffff8211156133c6576133c5613334565b5b6133cf82612f4c565b9050602081019050919050565b828183375f83830152505050565b5f6133fc6133f7846133ac565b613392565b90508281526020810184848401111561341857613417613330565b5b6134238482856133dc565b509392505050565b5f82601f83011261343f5761343e61332c565b5b813561344f8482602086016133ea565b91505092915050565b5f5f6040838503121561346e5761346d612e69565b5b5f61347b85828601612fd3565b925050602083013567ffffffffffffffff81111561349c5761349b612e6d565b5b6134a88582860161342b565b9150509250929050565b5f602082840312156134c7576134c6612e69565b5b5f6134d484828501613080565b91505092915050565b5f60ff82169050919050565b6134f2816134dd565b81146134fc575f5ffd5b50565b5f8135905061350d816134e9565b92915050565b5f5f5f6060848603121561352a57613529612e69565b5b5f61353786828701612fd3565b9350506020613548868287016134ff565b925050604084013567ffffffffffffffff81111561356957613568612e6d565b5b6135758682870161342b565b9150509250925092565b5f5f5f5f6080858703121561359757613596612e69565b5b5f85013567ffffffffffffffff8111156135b4576135b3612e6d565b5b6135c08782880161342b565b945050602085013567ffffffffffffffff8111156135e1576135e0612e6d565b5b6135ed8782880161342b565b935050604085013567ffffffffffffffff81111561360e5761360d612e6d565b5b61361a8782880161342b565b925050606085013567ffffffffffffffff81111561363b5761363a612e6d565b5b6136478782880161342b565b91505092959194509250565b5f81519050919050565b5f82825260208201905092915050565b5f819050602082019050919050565b613685816134dd565b82525050565b5f60c083015f8301516136a05f86018261318a565b5060208301516136b3602086018261318a565b5060408301516136c660408601826131e1565b5060608301516136d9606086018261367c565b50608083015184820360808601526136f182826131a9565b91505060a083015161370660a086018261318a565b508091505092915050565b5f61371c838361368b565b905092915050565b5f602082019050919050565b5f61373a82613653565b613744818561365d565b9350836020820285016137568561366d565b805f5b8581101561379157848403895281516137728582613711565b945061377d83613724565b925060208a01995050600181019050613759565b50829750879550505050505092915050565b5f6020820190508181035f8301526137bb8184613730565b905092915050565b5f5f604083850312156137d9576137d8612e69565b5b5f6137e685828601613080565b92505060206137f7858286016130e8565b9150509250929050565b5f67ffffffffffffffff82111561381b5761381a613334565b5b61382482612f4c565b9050602081019050919050565b5f61384361383e84613801565b613392565b90508281526020810184848401111561385f5761385e613330565b5b61386a8482856133dc565b509392505050565b5f82601f8301126138865761388561332c565b5b8135613896848260208601613831565b91505092915050565b5f5f5f5f608085870312156138b7576138b6612e69565b5b5f6138c487828801613080565b94505060206138d587828801613080565b93505060406138e687828801612fd3565b925050606085013567ffffffffffffffff81111561390757613906612e6d565b5b61391387828801613872565b91505092959194509250565b5f5f6040838503121561393557613934612e69565b5b5f61394285828601613080565b925050602061395385828601613080565b9150509250929050565b7f4e487b71000000000000000000000000000000000000000000000000000000005f52602260045260245ffd5b5f60028204905060018216806139a157607f821691505b6020821081036139b4576139b361395d565b5b50919050565b7f4167656e7420646f6573206e6f742065786973740000000000000000000000005f82015250565b5f6139ee601483612f2e565b91506139f9826139ba565b602082019050919050565b5f6020820190508181035f830152613a1b816139e2565b9050919050565b5f604082019050613a355f830185612efc565b613a426020830184613304565b9392505050565b5f606082019050613a5c5f830186613042565b613a696020830185613304565b613a766040830184613042565b949350505050565b7f4e6f74206f776e657200000000000000000000000000000000000000000000005f82015250565b5f613ab2600983612f2e565b9150613abd82613a7e565b602082019050919050565b5f6020820190508181035f830152613adf81613aa6565b9050919050565b5f6040820190508181035f830152613afe8185612f5c565b9050613b0d6020830184613304565b9392505050565b7f526174696e67206d75737420626520312d3500000000000000000000000000005f82015250565b5f613b48601283612f2e565b9150613b5382613b14565b602082019050919050565b5f6020820190508181035f830152613b7581613b3c565b9050919050565b7f416c7265616479207265766965776564000000000000000000000000000000005f82015250565b5f613bb0601083612f2e565b9150613bbb82613b7c565b602082019050919050565b5f6020820190508181035f830152613bdd81613ba4565b9050919050565b5f819050815f5260205f209050919050565b5f6020601f8301049050919050565b5f82821b905092915050565b5f60088302613c407fffffffffffffffffffffffffffffffffffffffffffffffffffffffffffffffff82613c05565b613c4a8683613c05565b95508019841693508086168417925050509392505050565b5f819050919050565b5f613c85613c80613c7b84612fb4565b613c62565b612fb4565b9050919050565b5f819050919050565b613c9e83613c6b565b613cb2613caa82613c8c565b848454613c11565b825550505050565b5f5f905090565b613cc9613cba565b613cd4818484613c95565b505050565b5f5b82811015613cfa57613cef5f828401613cc1565b600181019050613cdb565b505050565b601f821115613d4d5782821115613d4c57613d1981613be4565b613d2283613bf6565b613d2b85613bf6565b6020861015613d38575f90505b808301613d4782840382613cd9565b505050505b5b505050565b5f82821c905092915050565b5f613d6d5f1984600802613d52565b1980831691505092915050565b5f613d858383613d5e565b9150826002028217905092915050565b613d9e82612f24565b67ffffffffffffffff811115613db757613db6613334565b5b613dc1825461398a565b613dcc828285613cff565b5f60209050601f831160018114613dfd575f8415613deb578287015190505b613df58582613d7a565b865550613e5c565b601f198416613e0b86613be4565b5f5b82811015613e3257848901518255600182019150602085019450602081019050613e0d565b86831015613e4f5784890151613e4b601f891682613d5e565b8355505b6001600288020188555050505b505050505050565b7f4e487b71000000000000000000000000000000000000000000000000000000005f52601160045260245ffd5b5f613e9b82612fb4565b91507fffffffffffffffffffffffffffffffffffffffffffffffffffffffffffffffff8203613ecd57613ecc613e64565b5b600182019050919050565b5f613ee282612fb4565b9150613eed83612fb4565b9250828201905080821115613f0557613f04613e64565b5b92915050565b613f14816134dd565b82525050565b5f604082019050613f2d5f830185613f0b565b613f3a6020830184613304565b9392505050565b5f613f4b82612fb4565b9150613f5683612fb4565b9250828202613f6481612fb4565b91508282048414831517613f7b57613f7a613e64565b5b5092915050565b7f4e487b71000000000000000000000000000000000000000000000000000000005f52601260045260245ffd5b5f613fb982612fb4565b9150613fc483612fb4565b925082613fd457613fd3613f82565b5b828204905092915050565b5f604082019050613ff25f830185613304565b613fff6020830184613304565b9392505050565b5f81519050919050565b5f82825260208201905092915050565b5f61402a82614006565b6140348185614010565b9350614044818560208601612f3e565b61404d81612f4c565b840191505092915050565b5f60808201905061406b5f830187613042565b6140786020830186613042565b6140856040830185613304565b81810360608301526140978184614020565b905095945050505050565b5f815190506140b081612e9c565b92915050565b5f602082840312156140cb576140ca612e69565b5b5f6140d8848285016140a2565b91505092915050565b5f81905092915050565b5f6140f582612f24565b6140ff81856140e1565b935061410f818560208601612f3e565b80840191505092915050565b5f61412682856140eb565b915061413282846140eb565b91508190509392505050565b5f6040820190506141515f830185613042565b61415e6020830184613304565b939250505056fea26469706673582212201904a883800df882c8745e2d1d314028dfe0ae0ab1edb9d773bf443735f70a9964736f6c63430008210033","linkReferences":{}},"methodIdentifiers":{"approve(address,uint256)":"095ea7b3","balanceOf(address)":"70a08231","burn(uint256)":"42966c68","getAgent(uint256)":"2de5aaf7","getApproved(uint256)":"081812fc","getReputationScore(uint256)":"bd5bcb0a","getReviewCount(uint256)":"5d75135a","getReviews(uint256)":"9d4a2255","getTotalAgents()":"3731a16f","hasReviewed(address,uint256)":"309578ff","isApprovedForAll(address,address)":"e985e9c5","name()":"06fdde03","owner()":"8da5cb5b","ownerOf(uint256)":"6352211e","registerAgent(string,string,string,string)":"75694ff3","renounceOwnership()":"715018a6","safeTransferFrom(address,address,uint256)":"42842e0e","safeTransferFrom(address,address,uint256,bytes)":"b88d4fde","setApprovalForAll(address,bool)":"a22cb465","setReviewerStake(address,uint256)":"f1af6ed6","submitReview(uint256,uint8,string)":"74a5b693","supportsInterface(bytes4)":"01ffc9a7","symbol()":"95d89b41","tokenURI(uint256)":"c87b56dd","transferFrom(address,address,uint256)":"23b872dd","transferOwnership(address)":"f2fde38b","updateMetadata(uint256,string)":"53c8388e","verifyAgent(uint256,bool)":"20c7c584"},"id":22}